:1000000000400000C1000000ED000000F100000011
:10001000F5000000F9000000FD00000000000000F5
:1000200000000000000000000000000001010000CE
:100030000501000000000000090100000D010000A2
:100040001101000011010000110100001101000068
:100050001101000011010000110100001101000058
:100060001101000011010000110100001101000048
:100070001101000015010000190100001D01000020
:100080002101000025010000290100002D010000D0
:1000900031010000350100000000000000000000F8
:1000A000390100003D010000410100000000000096
:1000B00045010000490100004D0100005101000010
:1000C00000B583B0074B019304E0019B1A1D019218
:1000D00000221A60019A044B9A42F6D300F0BCF851
:1000E000FEE7C0468402000084020000FEE7C0462E
:1000F000FEE7C046FEE7C046FEE7C046FEE7C04654
:10010000FEE7C046FEE7C046FEE7C046FEE7C04643
:10011000FEE7C046FEE7C046FEE7C046FEE7C04633
:10012000FEE7C046FEE7C046FEE7C046FEE7C04623
:10013000FEE7C046FEE7C046FEE7C046FEE7C04613
:10014000FEE7C046FEE7C046FEE7C046FEE7C04603
:10015000FEE7C04682B00190034B1B68019A1A600B
:10016000C04602B07047C0468002000082B00190D5
:10017000034B1B680433019A1A60C04602B07047F3
:100180008002000082B00190034B1B680833019A83
:100190001A60C04602B070478002000082B0019031
:1001A000034B1B680C33019A1A60C04602B07047BB
:1001B000800200000A4B1B680C3300221A60084BB7
:1001C0001B68083300221A60054B1B6804330022A9
:1001D0001A60034B1B6800221A60C0467047C04675
:1001E00080020000024B1B681B6818007047C04665
:1001F0008002000082B00190044B1A68019B9B00B2
:10020000D3181B68180002B07047C0467C0200007B
:1002100084B00190094B1B6808331B680393039A51
:10022000019B1A411300012213400293029B013BE0
:100230005A425341DBB2180004B070477C02000000
:10024000C046044B1B6808331B68002BF9D0C0461E
:100250007047C0467C02000010B50020FFF77AFF0F
:100260000020FFF783FFA0235B001800FFF78AFF41
:0C027000A0235B001800FFF791FFEEE7F1
:08027C000000004000000050EA
:00000001FF
